:020000021000EC
:10E000000C9446F00C945DF00C945DF00C945DF073
:10E010000C945DF00C945DF00C945DF00C945DF04C
:10E020000C945DF00C945DF00C945DF00C945DF03C
:10E030000C945DF00C945DF00C945DF00C945DF02C
:10E040000C945DF00C945DF00C945DF00C945DF01C
:10E050000C945DF00C945DF00C945DF00C945DF00C
:10E060000C945DF00C945DF00C945DF00C945DF0FC
:10E070000C945DF00C945DF00C945DF00C945DF0EC
:10E080000C945DF00C945DF00C945DF011241FBEB7
:10E09000CFEFD0E4DEBFCDBF12E0A0E0B1E0E0EB17
:10E0A000F1EE01E00BBF02C007900D92A030B10766
:10E0B000D9F70E94B5F00C94D6F00C9400F0BF9202
:10E0C000CF92DF92EF92FF920F931F93CF93DF9344
:10E0D000CFB7F894F999FECF23E0FB0180935B0062
:10E0E00020935700E89507B600FCFDCF00E010E054
:10E0F0009801D1E0FA01E00FF11FB08068017901C9
:10E10000C60ED71EE81EF91EE181F0E0BE2FAA2739
:10E11000AB0DB11D0D01F601E0925B00D0935700ED
:10E12000E89511240E5F1F4F2F4F3F4F0115E1E07F
:10E130001E0721053105F1F625E0FB0180935B0008
:10E1400020935700E89507B600FCFDCF81E180934E
:10E150005700E895CFBFDF91CF911F910F91FF90AE
:10E16000EF90DF90CF90BF900895549A5C9A2FEF74
:10E1700080E792E0215080409040E1F700C000002D
:10E180005C982FEF89E698E1215080409040E1F7BC
:10E1900000C0000040E051E060E070E0CB010E9470
:10E1A0005FF00C94000080E090E00895F894FFCFB9
:10E1B0000C9446000C9450000C9450000C945000A9
:10E1C0000C9450000C9450000C9450000C9450008F
:10E1D0000C9450000C9450000C9450000C9450007F
:10E1E0000C9450000C9450000C9450000C9450006F
:10E1F0000C9450000C9450000C9450000C9450005F
:10E200000C9450000C9450000C9450000C9450004E
:10E210000C9450000C9450000C9450000C9450003E
:10E220000C9450000C9450000C9450000C9450002E
:10E230000C9450000C9450000C94500011241FBEFC
:10E24000CFEFD0E4DEBFCDBF0E9452000C9465003A
:10E250000C940000549A5C9A8FE097E20197F1F7D2
:10E2600000C000005C989FEF29E688E191502040B3
:10E270008040E1F700C00000EECFF894FFCFFFFF31
:10E28000FFFFFFFFFFFFFFFFFFFFFFFFFFFFFFFF9E
:10E29000FFFFFFFFFFFFFFFFFFFFFFFFFFFFFFFF8E
:10E2A000FFFFFFFFFFFFFFFFFFFFFFFFFFFFFFFF7E
:040000031000E00009
:00000001FF
